{"abi":[{"type":"function","name":"addToWhitelist","inputs":[{"name":"uuid","type":"uint32","internalType":"uint32"},{"name":"account","type":"address","internalType":"address"}],"outputs":[],"stateMutability":"nonpayable"},{"type":"function","name":"checkReadCondition","inputs":[{"name":"uuid","type":"uint32","internalType":"uint32"},{"name":"","type":"bytes","internalType":"bytes"},{"name":"","type":"bytes","internalType":"bytes"},{"name":"caller","type":"address","internalType":"address"}],"outputs":[{"name":"","type":"bool","internalType":"bool"}],"stateMutability":"view"},{"type":"function","name":"checkWriteCondition","inputs":[{"name":"uuid","type":"uint32","internalType":"uint32"},{"name":"","type":"bytes","internalType":"bytes"},{"name":"","type":"bytes","internalType":"bytes"},{"name":"caller","type":"address","internalType":"address"}],"outputs":[{"name":"","type":"bool","internalType":"bool"}],"stateMutability":"view"},{"type":"function","name":"isWhitelisted","inputs":[{"name":"uuid","type":"uint32","internalType":"uint32"},{"name":"","type":"address","internalType":"address"}],"outputs":[{"name":"","type":"bool","internalType":"bool"}],"stateMutability":"view"},{"type":"function","name":"register","inputs":[{"name":"uuid","type":"uint32","internalType":"uint32"}],"outputs":[],"stateMutability":"nonpayable"},{"type":"function","name":"registerWithInitial","inputs":[{"name":"uuid","type":"uint32","internalType":"uint32"},{"name":"initial","type":"address[]","internalType":"address[]"}],"outputs":[],"stateMutability":"nonpayable"},{"type":"function","name":"removeFromWhitelist","inputs":[{"name":"uuid","type":"uint32","internalType":"uint32"},{"name":"account","type":"address","internalType":"address"}],"outputs":[],"stateMutability":"nonpayable"},{"type":"function","name":"vaultCreator","inputs":[{"name":"uuid","type":"uint32","internalType":"uint32"}],"outputs":[{"name":"creator","type":"address","internalType":"address"}],"stateMutability":"view"},{"type":"error","name":"AlreadyRegistered","inputs":[]},{"type":"error","name":"NotCreator","inputs":[]}],"bytecode":{"object":"0x6080604052348015600e575f80fd5b506106348061001c5f395ff3fe608060405234801561000f575f80fd5b5060043610610085575f3560e01c80638db3eb17116100585780638db3eb171461009e578063c428a9761461011d578063e67e990814610130578063fc9241141461015d575f80fd5b8063130d7906146100895780635645dbbf1461009e5780637caf3613146100f75780637e40c2031461010a575b5f80fd5b61009c610097366004610415565b61019d565b005b6100e26100ac366004610490565b63ffffffff86165f9081526001602090815260408083206001600160a01b038516845290915290205460ff169695505050505050565b60405190151581526020015b60405180910390f35b61009c61010536600461051f565b61021d565b61009c6101183660046105a0565b610318565b61009c61012b3660046105a0565b61038d565b6100e261013e3660046105a0565b600160209081525f928352604080842090915290825290205460ff1681565b61018561016b366004610415565b5f602081905290815260409020546001600160a01b031681565b6040516001600160a01b0390911681526020016100ee565b63ffffffff81165f908152602081905260409020546001600160a01b0316156101d957604051630ea075bf60e21b815260040160405180910390fd5b63ffffffff165f9081526020818152604080832080546001600160a01b0319163390811790915560018084528285209185529252909120805460ff19169091179055565b63ffffffff83165f908152602081905260409020546001600160a01b03161561025957604051630ea075bf60e21b815260040160405180910390fd5b63ffffffff83165f9081526020818152604080832080546001600160a01b03191633908117909155600180845282852091855292528220805460ff191690911790555b818110156103125763ffffffff84165f908152600160208190526040822090918585858181106102ce576102ce6105d1565b90506020020160208101906102e391906105e5565b6001600160a01b0316815260208101919091526040015f20805460ff191691151591909117905560010161029c565b50505050565b63ffffffff82165f908152602081905260409020546001600160a01b03163314610355576040516393687c0b60e01b815260040160405180910390fd5b63ffffffff9091165f9081526001602081815260408084206001600160a01b039095168452939052919020805460ff19169091179055565b63ffffffff82165f908152602081905260409020546001600160a01b031633146103ca576040516393687c0b60e01b815260040160405180910390fd5b63ffffffff9091165f9081526001602090815260408083206001600160a01b03909416835292905220805460ff19169055565b803563ffffffff81168114610410575f80fd5b919050565b5f60208284031215610425575f80fd5b61042e826103fd565b9392505050565b5f8083601f840112610445575f80fd5b50813567ffffffffffffffff81111561045c575f80fd5b602083019150836020828501011115610473575f80fd5b9250929050565b80356001600160a01b0381168114610410575f80fd5b5f805f805f80608087890312156104a5575f80fd5b6104ae876103fd565b9550602087013567ffffffffffffffff8111156104c9575f80fd5b6104d589828a01610435565b909650945050604087013567ffffffffffffffff8111156104f4575f80fd5b61050089828a01610435565b909450925061051390506060880161047a565b90509295509295509295565b5f805f60408486031215610531575f80fd5b61053a846103fd565b9250602084013567ffffffffffffffff811115610555575f80fd5b8401601f81018613610565575f80fd5b803567ffffffffffffffff81111561057b575f80fd5b8660208260051b840101111561058f575f80fd5b939660209190910195509293505050565b5f80604083850312156105b1575f80fd5b6105ba836103fd565b91506105c86020840161047a565b90509250929050565b634e487b7160e01b5f52603260045260245ffd5b5f602082840312156105f5575f80fd5b61042e8261047a56fea2646970667358221220ceb0734484f8c8159d09c2d3bc0d8658dd1f96507ca3f3fc648189c66e8bbebb64736f6c634300081a0033","linkReferences":{}},"methodIdentifiers":{"addToWhitelist(uint32,address)":"7e40c203","checkReadCondition(uint32,bytes,bytes,address)":"8db3eb17","checkWriteCondition(uint32,bytes,bytes,address)":"5645dbbf","isWhitelisted(uint32,address)":"e67e9908","register(uint32)":"130d7906","registerWithInitial(uint32,address[])":"7caf3613","removeFromWhitelist(uint32,address)":"c428a976","vaultCreator(uint32)":"fc924114"},"id":0}